{
  "contractName": "Verification",
  "abi": [
    {
      "constant": true,
      "inputs": [
        {
          "name": "",
          "type": "uint256"
        }
      ],
      "name": "tasks",
      "outputs": [
        {
          "name": "id",
          "type": "uint256"
        },
        {
          "name": "content",
          "type": "string"
        },
        {
          "name": "hashID",
          "type": "bytes32"
        },
        {
          "name": "status",
          "type": "bool"
        }
      ],
      "payable": false,
      "stateMutability": "view",
      "type": "function",
      "signature": "0x8d977672"
    },
    {
      "constant": true,
      "inputs": [],
      "name": "taskCount",
      "outputs": [
        {
          "name": "",
          "type": "uint256"
        }
      ],
      "payable": false,
      "stateMutability": "view",
      "type": "function",
      "signature": "0xb6cb58a5"
    },
    {
      "inputs": [],
      "payable": false,
      "stateMutability": "nonpayable",
      "type": "constructor",
      "signature": "constructor"
    },
    {
      "anonymous": false,
      "inputs": [
        {
          "indexed": false,
          "name": "id",
          "type": "uint256"
        },
        {
          "indexed": false,
          "name": "content",
          "type": "string"
        },
        {
          "indexed": false,
          "name": "hashID",
          "type": "bytes32"
        },
        {
          "indexed": false,
          "name": "status",
          "type": "bool"
        }
      ],
      "name": "TaskCreated",
      "type": "event",
      "signature": "0x9a0b53a419b190bbb1567c0e29d66e43a6d0797dce5f07baf706a6450d39f42c"
    },
    {
      "constant": false,
      "inputs": [
        {
          "name": "_content",
          "type": "string"
        },
        {
          "name": "_hashID",
          "type": "bytes32"
        }
      ],
      "name": "createTask",
      "outputs": [],
      "payable": false,
      "stateMutability": "nonpayable",
      "type": "function",
      "signature": "0x75cb2a0e"
    }
  ],
  "bytecode": "0x60806040526000805534801561001457600080fd5b5060408051808201909152600381527f50414e0000000000000000000000000000000000000000000000000000000000602082015261007c907f04d738f8bae31ec1f54935d60896891f928a7ec12a2ffd635e79dbaf4c584aee640100000000610081810204565b61025a565b6000805460019081018083556040805160808101825282815260208082018881528284018890526060830186905293865284815291909420845181559151805192936100d5939085019291909101906101bf565b506040820151816002015560608201518160030160006101000a81548160ff0219169083151502179055509050507f9a0b53a419b190bbb1567c0e29d66e43a6d0797dce5f07baf706a6450d39f42c60005483836001604051808581526020018060200184815260200183151515158152602001828103825285818151815260200191508051906020019080838360005b8381101561017e578181015183820152602001610166565b50505050905090810190601f1680156101ab5780820380516001836020036101000a031916815260200191505b509550505050505060405180910390a15050565b828054600181600116156101000203166002900490600052602060002090601f016020900481019282601f1061020057805160ff191683800117855561022d565b8280016001018555821561022d579182015b8281111561022d578251825591602001919060010190610212565b5061023992915061023d565b5090565b61025791905b808211156102395760008155600101610243565b90565b6104b2806102696000396000f3fe6080604052600436106100565763ffffffff7c010000000000000000000000000000000000000000000000000000000060003504166375cb2a0e811461005b5780638d97767214610112578063b6cb58a5146101ca575b600080fd5b34801561006757600080fd5b506101106004803603604081101561007e57600080fd5b81019060208101813564010000000081111561009957600080fd5b8201836020820111156100ab57600080fd5b803590602001918460018302840111640100000000831117156100cd57600080fd5b91908080601f01602080910402602001604051908101604052809392919081815260200183838082843760009201919091525092955050913592506101f1915050565b005b34801561011e57600080fd5b5061013c6004803603602081101561013557600080fd5b503561032f565b60408051858152908101839052811515606082015260806020808301828152865192840192909252855160a084019187019080838360005b8381101561018c578181015183820152602001610174565b50505050905090810190601f1680156101b95780820380516001836020036101000a031916815260200191505b509550505050505060405180910390f35b3480156101d657600080fd5b506101df6103e5565b60408051918252519081900360200190f35b600080546001908101808355604080516080810182528281526020808201888152828401889052606083018690529386528481529190942084518155915180519293610245939085019291909101906103eb565b506040820151816002015560608201518160030160006101000a81548160ff0219169083151502179055509050507f9a0b53a419b190bbb1567c0e29d66e43a6d0797dce5f07baf706a6450d39f42c60005483836001604051808581526020018060200184815260200183151515158152602001828103825285818151815260200191508051906020019080838360005b838110156102ee5781810151838201526020016102d6565b50505050905090810190601f16801561031b5780820380516001836020036101000a031916815260200191505b509550505050505060405180910390a15050565b600160208181526000928352604092839020805481840180548651600296821615610100026000190190911695909504601f810185900485028601850190965285855290949193929091908301828280156103cb5780601f106103a0576101008083540402835291602001916103cb565b820191906000526020600020905b8154815290600101906020018083116103ae57829003601f168201915b50505050600283015460039093015491929160ff16905084565b60005481565b828054600181600116156101000203166002900490600052602060002090601f016020900481019282601f1061042c57805160ff1916838001178555610459565b82800160010185558215610459579182015b8281111561045957825182559160200191906001019061043e565b50610465929150610469565b5090565b61048391905b80821115610465576000815560010161046f565b9056fea165627a7a72305820b34bea1bc9669691b70ff73a46b13b74ce6f1a8125b13195910bbcb915d0ceed0029",
  "source": "pragma solidity ^0.5.0;\r\n\r\ncontract Verification{\r\n    uint public taskCount =0;\r\n\r\n    struct Task{\r\n        uint id;\r\n        string content;\r\n        bytes32 hashID;\r\n        bool status;\r\n    }\r\n\r\n    mapping(uint => Task) public tasks;\r\n\r\n    event TaskCreated(\r\n        uint id,\r\n        string content,\r\n        bytes32 hashID,\r\n        bool status\r\n\r\n    );\r\n\r\n\r\n    constructor() public{\r\n        createTask(\"PAN\",0x04d738f8bae31ec1f54935d60896891f928a7ec12a2ffd635e79dbaf4c584aee);\r\n    }\r\n\r\n    function createTask(string memory _content,bytes32 _hashID) public {\r\n        taskCount++;\r\n        tasks[taskCount] = Task(taskCount,_content,_hashID,true);\r\n        emit TaskCreated(taskCount ,_content,_hashID,true);\r\n    }\r\n\r\n\r\n\r\n}",
  "sourcePath": "C:/Users/Admin/Desktop/Blockchain/genesis-submission/IndiaOne/IndiaOne/India/contracts/Verification.sol",
  "compiler": {
    "name": "solc",
    "version": "0.5.0+commit.1d4f565a.Emscripten.clang"
  },
  "schemaVersion": "3.0.1",
  "updatedAt": "2019-05-15T07:16:06.696Z",
  "devdoc": {
    "methods": {}
  },
  "userdoc": {
    "methods": {}
  }
}